{"contracts/OrganListing.sol":{"OrganListing":{"abi":[{"anonymous":false,"inputs":[{"indexed":true,"internalType":"uint256","name":"organId","type":"uint256"},{"indexed":true,"internalType":"address","name":"organContract","type":"address"},{"indexed":true,"internalType":"uint256","name":"tokenId","type":"uint256"},{"indexed":false,"internalType":"address","name":"donor","type":"address"},{"indexed":false,"internalType":"address","name":"recipient","type":"address"},{"indexed":false,"internalType":"bool","name":"allocated","type":"bool"},{"indexed":false,"internalType":"string","name":"organType","type":"string"},{"indexed":false,"internalType":"string","name":"bloodGroup","type":"string"},{"indexed":false,"internalType":"uint256","name":"expiryTime","type":"uint256"},{"indexed":false,"internalType":"string","name":"url","type":"string"}],"name":"NewOrganListed","type":"event"},{"inputs":[{"internalType":"address","name":"cmoAddress","type":"address"},{"internalType":"uint256","name":"organId","type":"uint256"}],"name":"AllocateOrgan","outputs":[],"stateMutability":"nonpayable","type":"function"},{"inputs":[{"internalType":"address","name":"cmoAddress","type":"address"},{"internalType":"uint256","name":"tokenId","type":"uint256"},{"internalType":"string","name":"organType","type":"string"},{"internalType":"string","name":"bloodGroup","type":"string"},{"internalType":"string","name":"ipfsUrl","type":"string"}],"name":"ListOrgan","outputs":[],"stateMutability":"nonpayable","type":"function"},{"inputs":[],"name":"fetchAllOrgans","outputs":[{"components":[{"internalType":"uint256","name":"organId","type":"uint256"},{"internalType":"address","name":"organContract","type":"address"},{"internalType":"uint256","name":"tokenId","type":"uint256"},{"internalType":"address","name":"donor","type":"address"},{"internalType":"address","name":"recipient","type":"address"},{"internalType":"bool","name":"allocated","type":"bool"},{"internalType":"string","name":"organType","type":"string"},{"internalType":"string","name":"bloodGroup","type":"string"},{"internalType":"uint256","name":"expiryTime","type":"uint256"},{"internalType":"string","name":"url","type":"string"}],"internalType":"struct OrganListing.ListedOrgan[]","name":"","type":"tuple[]"}],"stateMutability":"view","type":"function"},{"inputs":[],"name":"fetchOrganItems","outputs":[{"components":[{"internalType":"uint256","name":"organId","type":"uint256"},{"internalType":"address","name":"organContract","type":"address"},{"internalType":"uint256","name":"tokenId","type":"uint256"},{"internalType":"address","name":"donor","type":"address"},{"internalType":"address","name":"recipient","type":"address"},{"internalType":"bool","name":"allocated","type":"bool"},{"internalType":"string","name":"organType","type":"string"},{"internalType":"string","name":"bloodGroup","type":"string"},{"internalType":"uint256","name":"expiryTime","type":"uint256"},{"internalType":"string","name":"url","type":"string"}],"internalType":"struct OrganListing.ListedOrgan[]","name":"","type":"tuple[]"}],"stateMutability":"view","type":"function"}],"evm":{"bytecode":{"linkReferences":{},"object":"608060405234801561001057600080fd5b506001600055610fbc806100256000396000f3fe608060405234801561001057600080fd5b506004361061004c5760003560e01c806311d103611461005157806341d098851461006f5780637bfd8cce14610084578063a85d41ee14610097575b600080fd5b61005961009f565b6040516100669190610bd8565b60405180910390f35b61008261007d366004610d9a565b6103fe565b005b610082610092366004610e3d565b610645565b610059610713565b606060006100ac60015490565b905060006100b960025490565b6001546100c69190610e7d565b90506000808267ffffffffffffffff8111156100e4576100e4610cf7565b60405190808252806020026020018201604052801561011d57816020015b61010a610a82565b8152602001906001900390816101025790505b50905060005b848110156103f557600060038161013b846001610e94565b81526020810191909152604001600020600401546001600160a01b031614156103e357600060038161016e846001610e94565b815260208082019290925260409081016000908120548082526003808552918390208351610140810185528154815260018201546001600160a01b0390811696820196909652600282015494810194909452918201548416606084015260048201549384166080840152600160a01b90930460ff16151560a08301526005810180549394509092839160c084019161020590610eac565b80601f016020809104026020016040519081016040528092919081815260200182805461023190610eac565b801561027e5780601f106102535761010080835404028352916020019161027e565b820191906000526020600020905b81548152906001019060200180831161026157829003601f168201915b5050505050815260200160068201805461029790610eac565b80601f01602080910402602001604051908101604052809291908181526020018280546102c390610eac565b80156103105780601f106102e557610100808354040283529160200191610310565b820191906000526020600020905b8154815290600101906020018083116102f357829003601f168201915b505050505081526020016007820154815260200160088201805461033390610eac565b80601f016020809104026020016040519081016040528092919081815260200182805461035f90610eac565b80156103ac5780601f10610381576101008083540402835291602001916103ac565b820191906000526020600020905b81548152906001019060200180831161038f57829003601f168201915b5050505050815250508486815181106103c7576103c7610ee7565b602002602001018190525084806103dd90610efd565b95505050505b806103ed81610efd565b915050610123565b50949350505050565b610406610a24565b610414600180546001019055565b600061041f60015490565b60408051610140810182528281526001600160a01b038916602082015290810187905233606082015260006080820181905260a082015260c0810186905260e08101859052909150610100810161047842614650610e94565b815260209081018490526000838152600380835260409182902084518155848401516001820180546001600160a01b039283166001600160a01b031991821617909155938601516002830155606086015192820180549382169390941692909217909255608084015160048301805460a08701511515600160a01b026001600160a81b0319909116929093169190911791909117905560c08301518051919261052992600585019290910190610af2565b5060e08201518051610545916006840191602090910190610af2565b506101008201516007820155610120820151805161056d916008840191602090910190610af2565b50506040516323b872dd60e01b8152336004820152306024820152604481018790526001600160a01b03881691506323b872dd90606401600060405180830381600087803b1580156105be57600080fd5b505af11580156105d2573d6000803e3d6000fd5b5050505084866001600160a01b0316827f67fa36328427cd3835f5c4f15f5a886aa9fc759a796f53128956724640cebc33336000808a8a426146506106179190610e94565b8b60405161062b9796959493929190610f18565b60405180910390a45061063e6001600055565b5050505050565b61064d610a24565b600081815260036020526040908190206002015490516323b872dd60e01b8152306004820152336024820152604481018290526001600160a01b038416906323b872dd90606401600060405180830381600087803b1580156106ae57600080fd5b505af11580156106c2573d6000803e3d6000fd5b5050506000838152600360205260409020600401805460ff60a01b1933166001600160a81b031990911617600160a01b17905550610704600280546001019055565b5061070f6001600055565b5050565b6060600061072060015490565b90506000808267ffffffffffffffff81111561073e5761073e610cf7565b60405190808252806020026020018201604052801561077757816020015b610764610a82565b81526020019060019003908161075c5790505b50905060005b83811015610a1c576000600381610795846001610e94565b815260208082019290925260409081016000908120548082526003808552918390208351610140810185528154815260018201546001600160a01b0390811696820196909652600282015494810194909452918201548416606084015260048201549384166080840152600160a01b90930460ff16151560a08301526005810180549394509092839160c084019161082c90610eac565b80601f016020809104026020016040519081016040528092919081815260200182805461085890610eac565b80156108a55780601f1061087a576101008083540402835291602001916108a5565b820191906000526020600020905b81548152906001019060200180831161088857829003601f168201915b505050505081526020016006820180546108be90610eac565b80601f01602080910402602001604051908101604052809291908181526020018280546108ea90610eac565b80156109375780601f1061090c57610100808354040283529160200191610937565b820191906000526020600020905b81548152906001019060200180831161091a57829003601f168201915b505050505081526020016007820154815260200160088201805461095a90610eac565b80601f016020809104026020016040519081016040528092919081815260200182805461098690610eac565b80156109d35780601f106109a8576101008083540402835291602001916109d3565b820191906000526020600020905b8154815290600101906020018083116109b657829003601f168201915b5050505050815250508486815181106109ee576109ee610ee7565b60200260200101819052508480610a0490610efd565b95505050508080610a1490610efd565b91505061077d565b509392505050565b60026000541415610a7b5760405162461bcd60e51b815260206004820152601f60248201527f5265656e7472616e637947756172643a207265656e7472616e742063616c6c00604482015260640160405180910390fd5b6002600055565b6040518061014001604052806000815260200160006001600160a01b031681526020016000815260200160006001600160a01b0316815260200160006001600160a01b03168152602001600015158152602001606081526020016060815260200160008152602001606081525090565b828054610afe90610eac565b90600052602060002090601f016020900481019282610b205760008555610b66565b82601f10610b3957805160ff1916838001178555610b66565b82800160010185558215610b66579182015b82811115610b66578251825591602001919060010190610b4b565b50610b72929150610b76565b5090565b5b80821115610b725760008155600101610b77565b6000815180845260005b81811015610bb157602081850181015186830182015201610b95565b81811115610bc3576000602083870101525b50601f01601f19169290920160200192915050565b60006020808301818452808551808352604092508286019150828160051b87010184880160005b83811015610ccd57603f19898403018552815180518452878101516001600160a01b039081168986015287820151888601526060808301518216908601526080808301519091169085015260a08082015115159085015260c0808201516101408287018190529190610c7383880182610b8b565b9250505060e08083015186830382880152610c8e8382610b8b565b925050506101008083015181870152506101208083015192508582038187015250610cb98183610b8b565b968901969450505090860190600101610bff565b509098975050505050505050565b80356001600160a01b0381168114610cf257600080fd5b919050565b634e487b7160e01b600052604160045260246000fd5b600082601f830112610d1e57600080fd5b813567ffffffffffffffff80821115610d3957610d39610cf7565b604051601f8301601f19908116603f01168101908282118183101715610d6157610d61610cf7565b81604052838152866020858801011115610d7a57600080fd5b836020870160208301376000602085830101528094505050505092915050565b600080600080600060a08688031215610db257600080fd5b610dbb86610cdb565b945060208601359350604086013567ffffffffffffffff80821115610ddf57600080fd5b610deb89838a01610d0d565b94506060880135915080821115610e0157600080fd5b610e0d89838a01610d0d565b93506080880135915080821115610e2357600080fd5b50610e3088828901610d0d565b9150509295509295909350565b60008060408385031215610e5057600080fd5b610e5983610cdb565b946020939093013593505050565b634e487b7160e01b600052601160045260246000fd5b600082821015610e8f57610e8f610e67565b500390565b60008219821115610ea757610ea7610e67565b500190565b600181811c90821680610ec057607f821691505b60208210811415610ee157634e487b7160e01b600052602260045260246000fd5b50919050565b634e487b7160e01b600052603260045260246000fd5b6000600019821415610f1157610f11610e67565b5060010190565b6001600160a01b03888116825287166020820152851515604082015260e060608201819052600090610f4c90830187610b8b565b8281036080840152610f5e8187610b8b565b90508460a084015282810360c0840152610f788185610b8b565b9a995050505050505050505056fea2646970667358221220667d21e702271a7f08cf1a342838fcb9aa4af24a9c230900b8c9becbec884ee464736f6c63430008090033","opcodes":"PUSH1 0x80 PUSH1 0x40 MSTORE CALLVALUE DUP1 ISZERO PUSH2 0x10 JUMPI PUSH1 0x0 DUP1 REVERT JUMPDEST POP PUSH1 0x1 PUSH1 0x0 SSTORE PUSH2 0xFBC DUP1 PUSH2 0x25 PUSH1 0x0 CODECOPY PUSH1 0x0 RETURN INVALID PUSH1 0x80 PUSH1 0x40 MSTORE CALLVALUE DUP1 ISZERO PUSH2 0x10 JUMPI PUSH1 0x0 DUP1 REVERT JUMPDEST POP PUSH1 0x4 CALLDATASIZE LT PUSH2 0x4C JUMPI PUSH1 0x0 CALLDATALOAD PUSH1 0xE0 SHR DUP1 PUSH4 0x11D10361 EQ PUSH2 0x51 JUMPI DUP1 PUSH4 0x41D09885 EQ PUSH2 0x6F JUMPI DUP1 PUSH4 0x7BFD8CCE EQ PUSH2 0x84 JUMPI DUP1 PUSH4 0xA85D41EE EQ PUSH2 0x97 JUMPI JUMPDEST PUSH1 0x0 DUP1 REVERT JUMPDEST PUSH2 0x59 PUSH2 0x9F JUMP JUMPDEST PUSH1 0x40 MLOAD PUSH2 0x66 SWAP2 SWAP1 PUSH2 0xBD8 JUMP JUMPDEST PUSH1 0x40 MLOAD DUP1 SWAP2 SUB SWAP1 RETURN JUMPDEST PUSH2 0x82 PUSH2 0x7D CALLDATASIZE PUSH1 0x4 PUSH2 0xD9A JUMP JUMPDEST PUSH2 0x3FE JUMP JUMPDEST STOP JUMPDEST PUSH2 0x82 PUSH2 0x92 CALLDATASIZE PUSH1 0x4 PUSH2 0xE3D JUMP JUMPDEST PUSH2 0x645 JUMP JUMPDEST PUSH2 0x59 PUSH2 0x713 JUMP JUMPDEST PUSH1 0x60 PUSH1 0x0 PUSH2 0xAC PUSH1 0x1 SLOAD SWAP1 JUMP JUMPDEST SWAP1 POP PUSH1 0x0 PUSH2 0xB9 PUSH1 0x2 SLOAD SWAP1 JUMP JUMPDEST PUSH1 0x1 SLOAD PUSH2 0xC6 SWAP2 SWAP1 PUSH2 0xE7D JUMP JUMPDEST SWAP1 POP PUSH1 0x0 DUP1 DUP3 PUSH8 0xFFFFFFFFFFFFFFFF DUP2 GT ISZERO PUSH2 0xE4 JUMPI PUSH2 0xE4 PUSH2 0xCF7 JUMP JUMPDEST PUSH1 0x40 MLOAD SWAP1 DUP1 DUP3 MSTORE DUP1 PUSH1 0x20 MUL PUSH1 0x20 ADD DUP3 ADD PUSH1 0x40 MSTORE DUP1 ISZERO PUSH2 0x11D JUMPI DUP2 PUSH1 0x20 ADD JUMPDEST PUSH2 0x10A PUSH2 0xA82 JUMP JUMPDEST DUP2 MSTORE PUSH1 0x20 ADD SWAP1 PUSH1 0x1 SWAP1 SUB SWAP1 DUP2 PUSH2 0x102 JUMPI SWAP1 POP JUMPDEST POP SWAP1 POP PUSH1 0x0 JUMPDEST DUP5 DUP2 LT ISZERO PUSH2 0x3F5 JUMPI PUSH1 0x0 PUSH1 0x3 DUP2 PUSH2 0x13B DUP5 PUSH1 0x1 PUSH2 0xE94 JUMP JUMPDEST DUP2 MSTORE PUSH1 0x20 DUP2 ADD SWAP2 SWAP1 SWAP2 MSTORE PUSH1 0x40 ADD PUSH1 0x0 KECCAK256 PUSH1 0x4 ADD SLOAD PUSH1 0x1 PUSH1 0x1 PUSH1 0xA0 SHL SUB AND EQ ISZERO PUSH2 0x3E3 JUMPI PUSH1 0x0 PUSH1 0x3 DUP2 PUSH2 0x16E DUP5 PUSH1 0x1 PUSH2 0xE94 JUMP JUMPDEST DUP2 MSTORE PUSH1 0x20 DUP1 DUP3 ADD SWAP3 SWAP1 SWAP3 MSTORE PUSH1 0x40 SWAP1 DUP2 ADD PUSH1 0x0 SWAP1 DUP2 KECCAK256 SLOAD DUP1 DUP3 MSTORE PUSH1 0x3 DUP1 DUP6 MSTORE SWAP2 DUP4 SWAP1 KECCAK256 DUP4 MLOAD PUSH2 0x140 DUP2 ADD DUP6 MSTORE DUP2 SLOAD DUP2 MSTORE PUSH1 0x1 DUP3 ADD SLOAD PUSH1 0x1 PUSH1 0x1 PUSH1 0xA0 SHL SUB SWAP1 DUP2 AND SWAP7 DUP3 ADD SWAP7 SWAP1 SWAP7 MSTORE PUSH1 0x2 DUP3 ADD SLOAD SWAP5 DUP2 ADD SWAP5 SWAP1 SWAP5 MSTORE SWAP2 DUP3 ADD SLOAD DUP5 AND PUSH1 0x60 DUP5 ADD MSTORE PUSH1 0x4 DUP3 ADD SLOAD SWAP4 DUP5 AND PUSH1 0x80 DUP5 ADD MSTORE PUSH1 0x1 PUSH1 0xA0 SHL SWAP1 SWAP4 DIV PUSH1 0xFF AND ISZERO ISZERO PUSH1 0xA0 DUP4 ADD MSTORE PUSH1 0x5 DUP2 ADD DUP1 SLOAD SWAP4 SWAP5 POP SWAP1 SWAP3 DUP4 SWAP2 PUSH1 0xC0 DUP5 ADD SWAP2 PUSH2 0x205 SWAP1 PUSH2 0xEAC JUMP JUMPDEST DUP1 PUSH1 0x1F ADD PUSH1 0x20 DUP1 SWAP2 DIV MUL PUSH1 0x20 ADD PUSH1 0x40 MLOAD SWAP1 DUP2 ADD PUSH1 0x40 MSTORE DUP1 SWAP3 SWAP2 SWAP1 DUP2 DUP2 MSTORE PUSH1 0x20 ADD DUP3 DUP1 SLOAD PUSH2 0x231 SWAP1 PUSH2 0xEAC JUMP JUMPDEST DUP1 ISZERO PUSH2 0x27E JUMPI DUP1 PUSH1 0x1F LT PUSH2 0x253 JUMPI PUSH2 0x100 DUP1 DUP4 SLOAD DIV MUL DUP4 MSTORE SWAP2 PUSH1 0x20 ADD SWAP2 PUSH2 0x27E JUMP JUMPDEST DUP3 ADD SWAP2 SWAP1 PUSH1 0x0 MSTORE PUSH1 0x20 PUSH1 0x0 KECCAK256 SWAP1 JUMPDEST DUP2 SLOAD DUP2 MSTORE SWAP1 PUSH1 0x1 ADD SWAP1 PUSH1 0x20 ADD DUP1 DUP4 GT PUSH2 0x261 JUMPI DUP3 SWAP1 SUB PUSH1 0x1F AND DUP3 ADD SWAP2 JUMPDEST POP POP POP POP POP DUP2 MSTORE PUSH1 0x20 ADD PUSH1 0x6 DUP3 ADD DUP1 SLOAD PUSH2 0x297 SWAP1 PUSH2 0xEAC JUMP JUMPDEST DUP1 PUSH1 0x1F ADD PUSH1 0x20 DUP1 SWAP2 DIV MUL PUSH1 0x20 ADD PUSH1 0x40 MLOAD SWAP1 DUP2 ADD PUSH1 0x40 MSTORE DUP1 SWAP3 SWAP2 SWAP1 DUP2 DUP2 MSTORE PUSH1 0x20 ADD DUP3 DUP1 SLOAD PUSH2 0x2C3 SWAP1 PUSH2 0xEAC JUMP JUMPDEST DUP1 ISZERO PUSH2 0x310 JUMPI DUP1 PUSH1 0x1F LT PUSH2 0x2E5 JUMPI PUSH2 0x100 DUP1 DUP4 SLOAD DIV MUL DUP4 MSTORE SWAP2 PUSH1 0x20 ADD SWAP2 PUSH2 0x310 JUMP JUMPDEST DUP3 ADD SWAP2 SWAP1 PUSH1 0x0 MSTORE PUSH1 0x20 PUSH1 0x0 KECCAK256 SWAP1 JUMPDEST DUP2 SLOAD DUP2 MSTORE SWAP1 PUSH1 0x1 ADD SWAP1 PUSH1 0x20 ADD DUP1 DUP4 GT PUSH2 0x2F3 JUMPI DUP3 SWAP1 SUB PUSH1 0x1F AND DUP3 ADD SWAP2 JUMPDEST POP POP POP POP POP DUP2 MSTORE PUSH1 0x20 ADD PUSH1 0x7 DUP3 ADD SLOAD DUP2 MSTORE PUSH1 0x20 ADD PUSH1 0x8 DUP3 ADD DUP1 SLOAD PUSH2 0x333 SWAP1 PUSH2 0xEAC JUMP JUMPDEST DUP1 PUSH1 0x1F ADD PUSH1 0x20 DUP1 SWAP2 DIV MUL PUSH1 0x20 ADD PUSH1 0x40 MLOAD SWAP1 DUP2 ADD PUSH1 0x40 MSTORE DUP1 SWAP3 SWAP2 SWAP1 DUP2 DUP2 MSTORE PUSH1 0x20 ADD DUP3 DUP1 SLOAD PUSH2 0x35F SWAP1 PUSH2 0xEAC JUMP JUMPDEST DUP1 ISZERO PUSH2 0x3AC JUMPI DUP1 PUSH1 0x1F LT PUSH2 0x381 JUMPI PUSH2 0x100 DUP1 DUP4 SLOAD DIV MUL DUP4 MSTORE SWAP2 PUSH1 0x20 ADD SWAP2 PUSH2 0x3AC JUMP JUMPDEST DUP3 ADD SWAP2 SWAP1 PUSH1 0x0 MSTORE PUSH1 0x20 PUSH1 0x0 KECCAK256 SWAP1 JUMPDEST DUP2 SLOAD DUP2 MSTORE SWAP1 PUSH1 0x1 ADD SWAP1 PUSH1 0x20 ADD DUP1 DUP4 GT PUSH2 0x38F JUMPI DUP3 SWAP1 SUB PUSH1 0x1F AND DUP3 ADD SWAP2 JUMPDEST POP POP POP POP POP DUP2 MSTORE POP POP DUP5 DUP7 DUP2 MLOAD DUP2 LT PUSH2 0x3C7 JUMPI PUSH2 0x3C7 PUSH2 0xEE7 JUMP JUMPDEST PUSH1 0x20 MUL PUSH1 0x20 ADD ADD DUP2 SWAP1 MSTORE POP DUP5 DUP1 PUSH2 0x3DD SWAP1 PUSH2 0xEFD JUMP JUMPDEST SWAP6 POP POP POP POP JUMPDEST DUP1 PUSH2 0x3ED DUP2 PUSH2 0xEFD JUMP JUMPDEST SWAP2 POP POP PUSH2 0x123 JUMP JUMPDEST POP SWAP5 SWAP4 POP POP POP POP JUMP JUMPDEST PUSH2 0x406 PUSH2 0xA24 JUMP JUMPDEST PUSH2 0x414 PUSH1 0x1 DUP1 SLOAD PUSH1 0x1 ADD SWAP1 SSTORE JUMP JUMPDEST PUSH1 0x0 PUSH2 0x41F PUSH1 0x1 SLOAD SWAP1 JUMP JUMPDEST PUSH1 0x40 DUP1 MLOAD PUSH2 0x140 DUP2 ADD DUP3 MSTORE DUP3 DUP2 MSTORE PUSH1 0x1 PUSH1 0x1 PUSH1 0xA0 SHL SUB DUP10 AND PUSH1 0x20 DUP3 ADD MSTORE SWAP1 DUP2 ADD DUP8 SWAP1 MSTORE CALLER PUSH1 0x60 DUP3 ADD MSTORE PUSH1 0x0 PUSH1 0x80 DUP3 ADD DUP2 SWAP1 MSTORE PUSH1 0xA0 DUP3 ADD MSTORE PUSH1 0xC0 DUP2 ADD DUP7 SWAP1 MSTORE PUSH1 0xE0 DUP2 ADD DUP6 SWAP1 MSTORE SWAP1 SWAP2 POP PUSH2 0x100 DUP2 ADD PUSH2 0x478 TIMESTAMP PUSH2 0x4650 PUSH2 0xE94 JUMP JUMPDEST DUP2 MSTORE PUSH1 0x20 SWAP1 DUP2 ADD DUP5 SWAP1 MSTORE PUSH1 0x0 DUP4 DUP2 MSTORE PUSH1 0x3 DUP1 DUP4 MSTORE PUSH1 0x40 SWAP2 DUP3 SWAP1 KECCAK256 DUP5 MLOAD DUP2 SSTORE DUP5 DUP5 ADD MLOAD PUSH1 0x1 DUP3 ADD DUP1 SLOAD PUSH1 0x1 PUSH1 0x1 PUSH1 0xA0 SHL SUB SWAP3 DUP4 AND PUSH1 0x1 PUSH1 0x1 PUSH1 0xA0 SHL SUB NOT SWAP2 DUP3 AND OR SWAP1 SWAP2 SSTORE SWAP4 DUP7 ADD MLOAD PUSH1 0x2 DUP4 ADD SSTORE PUSH1 0x60 DUP7 ADD MLOAD SWAP3 DUP3 ADD DUP1 SLOAD SWAP4 DUP3 AND SWAP4 SWAP1 SWAP5 AND SWAP3 SWAP1 SWAP3 OR SWAP1 SWAP3 SSTORE PUSH1 0x80 DUP5 ADD MLOAD PUSH1 0x4 DUP4 ADD DUP1 SLOAD PUSH1 0xA0 DUP8 ADD MLOAD ISZERO ISZERO PUSH1 0x1 PUSH1 0xA0 SHL MUL PUSH1 0x1 PUSH1 0x1 PUSH1 0xA8 SHL SUB NOT SWAP1 SWAP2 AND SWAP3 SWAP1 SWAP4 AND SWAP2 SWAP1 SWAP2 OR SWAP2 SWAP1 SWAP2 OR SWAP1 SSTORE PUSH1 0xC0 DUP4 ADD MLOAD DUP1 MLOAD SWAP2 SWAP3 PUSH2 0x529 SWAP3 PUSH1 0x5 DUP6 ADD SWAP3 SWAP1 SWAP2 ADD SWAP1 PUSH2 0xAF2 JUMP JUMPDEST POP PUSH1 0xE0 DUP3 ADD MLOAD DUP1 MLOAD PUSH2 0x545 SWAP2 PUSH1 0x6 DUP5 ADD SWAP2 PUSH1 0x20 SWAP1 SWAP2 ADD SWAP1 PUSH2 0xAF2 JUMP JUMPDEST POP PUSH2 0x100 DUP3 ADD MLOAD PUSH1 0x7 DUP3 ADD SSTORE PUSH2 0x120 DUP3 ADD MLOAD DUP1 MLOAD PUSH2 0x56D SWAP2 PUSH1 0x8 DUP5 ADD SWAP2 PUSH1 0x20 SWAP1 SWAP2 ADD SWAP1 PUSH2 0xAF2 JUMP JUMPDEST POP POP PUSH1 0x40 MLOAD PUSH4 0x23B872DD PUSH1 0xE0 SHL DUP2 MSTORE CALLER PUSH1 0x4 DUP3 ADD MSTORE ADDRESS PUSH1 0x24 DUP3 ADD MSTORE PUSH1 0x44 DUP2 ADD DUP8 SWAP1 MSTORE PUSH1 0x1 PUSH1 0x1 PUSH1 0xA0 SHL SUB DUP9 AND SWAP2 POP PUSH4 0x23B872DD SWAP1 PUSH1 0x64 ADD PUSH1 0x0 PUSH1 0x40 MLOAD DUP1 DUP4 SUB DUP2 PUSH1 0x0 DUP8 DUP1 EXTCODESIZE ISZERO DUP1 ISZERO PUSH2 0x5BE JUMPI PUSH1 0x0 DUP1 REVERT JUMPDEST POP GAS CALL ISZERO DUP1 ISZERO PUSH2 0x5D2 JUMPI RETURNDATASIZE PUSH1 0x0 DUP1 RETURNDATACOPY RETURNDATASIZE PUSH1 0x0 REVERT JUMPDEST POP POP POP POP DUP5 DUP7 PUSH1 0x1 PUSH1 0x1 PUSH1 0xA0 SHL SUB AND DUP3 PUSH32 0x67FA36328427CD3835F5C4F15F5A886AA9FC759A796F53128956724640CEBC33 CALLER PUSH1 0x0 DUP1 DUP11 DUP11 TIMESTAMP PUSH2 0x4650 PUSH2 0x617 SWAP2 SWAP1 PUSH2 0xE94 JUMP JUMPDEST DUP12 PUSH1 0x40 MLOAD PUSH2 0x62B SWAP8 SWAP7 SWAP6 SWAP5 SWAP4 SWAP3 SWAP2 SWAP1 PUSH2 0xF18 JUMP JUMPDEST PUSH1 0x40 MLOAD DUP1 SWAP2 SUB SWAP1 LOG4 POP PUSH2 0x63E PUSH1 0x1 PUSH1 0x0 SSTORE JUMP JUMPDEST POP POP POP POP POP JUMP JUMPDEST PUSH2 0x64D PUSH2 0xA24 JUMP JUMPDEST PUSH1 0x0 DUP2 DUP2 MSTORE PUSH1 0x3 PUSH1 0x20 MSTORE PUSH1 0x40 SWAP1 DUP2 SWAP1 KECCAK256 PUSH1 0x2 ADD SLOAD SWAP1 MLOAD PUSH4 0x23B872DD PUSH1 0xE0 SHL DUP2 MSTORE ADDRESS PUSH1 0x4 DUP3 ADD MSTORE CALLER PUSH1 0x24 DUP3 ADD MSTORE PUSH1 0x44 DUP2 ADD DUP3 SWAP1 MSTORE PUSH1 0x1 PUSH1 0x1 PUSH1 0xA0 SHL SUB DUP5 AND SWAP1 PUSH4 0x23B872DD SWAP1 PUSH1 0x64 ADD PUSH1 0x0 PUSH1 0x40 MLOAD DUP1 DUP4 SUB DUP2 PUSH1 0x0 DUP8 DUP1 EXTCODESIZE ISZERO DUP1 ISZERO PUSH2 0x6AE JUMPI PUSH1 0x0 DUP1 REVERT JUMPDEST POP GAS CALL ISZERO DUP1 ISZERO PUSH2 0x6C2 JUMPI RETURNDATASIZE PUSH1 0x0 DUP1 RETURNDATACOPY RETURNDATASIZE PUSH1 0x0 REVERT JUMPDEST POP POP POP PUSH1 0x0 DUP4 DUP2 MSTORE PUSH1 0x3 PUSH1 0x20 MSTORE PUSH1 0x40 SWAP1 KECCAK256 PUSH1 0x4 ADD DUP1 SLOAD PUSH1 0xFF PUSH1 0xA0 SHL NOT CALLER AND PUSH1 0x1 PUSH1 0x1 PUSH1 0xA8 SHL SUB NOT SWAP1 SWAP2 AND OR PUSH1 0x1 PUSH1 0xA0 SHL OR SWAP1 SSTORE POP PUSH2 0x704 PUSH1 0x2 DUP1 SLOAD PUSH1 0x1 ADD SWAP1 SSTORE JUMP JUMPDEST POP PUSH2 0x70F PUSH1 0x1 PUSH1 0x0 SSTORE JUMP JUMPDEST POP POP JUMP JUMPDEST PUSH1 0x60 PUSH1 0x0 PUSH2 0x720 PUSH1 0x1 SLOAD SWAP1 JUMP JUMPDEST SWAP1 POP PUSH1 0x0 DUP1 DUP3 PUSH8 0xFFFFFFFFFFFFFFFF DUP2 GT ISZERO PUSH2 0x73E JUMPI PUSH2 0x73E PUSH2 0xCF7 JUMP JUMPDEST PUSH1 0x40 MLOAD SWAP1 DUP1 DUP3 MSTORE DUP1 PUSH1 0x20 MUL PUSH1 0x20 ADD DUP3 ADD PUSH1 0x40 MSTORE DUP1 ISZERO PUSH2 0x777 JUMPI DUP2 PUSH1 0x20 ADD JUMPDEST PUSH2 0x764 PUSH2 0xA82 JUMP JUMPDEST DUP2 MSTORE PUSH1 0x20 ADD SWAP1 PUSH1 0x1 SWAP1 SUB SWAP1 DUP2 PUSH2 0x75C JUMPI SWAP1 POP JUMPDEST POP SWAP1 POP PUSH1 0x0 JUMPDEST DUP4 DUP2 LT ISZERO PUSH2 0xA1C JUMPI PUSH1 0x0 PUSH1 0x3 DUP2 PUSH2 0x795 DUP5 PUSH1 0x1 PUSH2 0xE94 JUMP JUMPDEST DUP2 MSTORE PUSH1 0x20 DUP1 DUP3 ADD SWAP3 SWAP1 SWAP3 MSTORE PUSH1 0x40 SWAP1 DUP2 ADD PUSH1 0x0 SWAP1 DUP2 KECCAK256 SLOAD DUP1 DUP3 MSTORE PUSH1 0x3 DUP1 DUP6 MSTORE SWAP2 DUP4 SWAP1 KECCAK256 DUP4 MLOAD PUSH2 0x140 DUP2 ADD DUP6 MSTORE DUP2 SLOAD DUP2 MSTORE PUSH1 0x1 DUP3 ADD SLOAD PUSH1 0x1 PUSH1 0x1 PUSH1 0xA0 SHL SUB SWAP1 DUP2 AND SWAP7 DUP3 ADD SWAP7 SWAP1 SWAP7 MSTORE PUSH1 0x2 DUP3 ADD SLOAD SWAP5 DUP2 ADD SWAP5 SWAP1 SWAP5 MSTORE SWAP2 DUP3 ADD SLOAD DUP5 AND PUSH1 0x60 DUP5 ADD MSTORE PUSH1 0x4 DUP3 ADD SLOAD SWAP4 DUP5 AND PUSH1 0x80 DUP5 ADD MSTORE PUSH1 0x1 PUSH1 0xA0 SHL SWAP1 SWAP4 DIV PUSH1 0xFF AND ISZERO ISZERO PUSH1 0xA0 DUP4 ADD MSTORE PUSH1 0x5 DUP2 ADD DUP1 SLOAD SWAP4 SWAP5 POP SWAP1 SWAP3 DUP4 SWAP2 PUSH1 0xC0 DUP5 ADD SWAP2 PUSH2 0x82C SWAP1 PUSH2 0xEAC JUMP JUMPDEST DUP1 PUSH1 0x1F ADD PUSH1 0x20 DUP1 SWAP2 DIV MUL PUSH1 0x20 ADD PUSH1 0x40 MLOAD SWAP1 DUP2 ADD PUSH1 0x40 MSTORE DUP1 SWAP3 SWAP2 SWAP1 DUP2 DUP2 MSTORE PUSH1 0x20 ADD DUP3 DUP1 SLOAD PUSH2 0x858 SWAP1 PUSH2 0xEAC JUMP JUMPDEST DUP1 ISZERO PUSH2 0x8A5 JUMPI DUP1 PUSH1 0x1F LT PUSH2 0x87A JUMPI PUSH2 0x100 DUP1 DUP4 SLOAD DIV MUL DUP4 MSTORE SWAP2 PUSH1 0x20 ADD SWAP2 PUSH2 0x8A5 JUMP JUMPDEST DUP3 ADD SWAP2 SWAP1 PUSH1 0x0 MSTORE PUSH1 0x20 PUSH1 0x0 KECCAK256 SWAP1 JUMPDEST DUP2 SLOAD DUP2 MSTORE SWAP1 PUSH1 0x1 ADD SWAP1 PUSH1 0x20 ADD DUP1 DUP4 GT PUSH2 0x888 JUMPI DUP3 SWAP1 SUB PUSH1 0x1F AND DUP3 ADD SWAP2 JUMPDEST POP POP POP POP POP DUP2 MSTORE PUSH1 0x20 ADD PUSH1 0x6 DUP3 ADD DUP1 SLOAD PUSH2 0x8BE SWAP1 PUSH2 0xEAC JUMP JUMPDEST DUP1 PUSH1 0x1F ADD PUSH1 0x20 DUP1 SWAP2 DIV MUL PUSH1 0x20 ADD PUSH1 0x40 MLOAD SWAP1 DUP2 ADD PUSH1 0x40 MSTORE DUP1 SWAP3 SWAP2 SWAP1 DUP2 DUP2 MSTORE PUSH1 0x20 ADD DUP3 DUP1 SLOAD PUSH2 0x8EA SWAP1 PUSH2 0xEAC JUMP JUMPDEST DUP1 ISZERO PUSH2 0x937 JUMPI DUP1 PUSH1 0x1F LT PUSH2 0x90C JUMPI PUSH2 0x100 DUP1 DUP4 SLOAD DIV MUL DUP4 MSTORE SWAP2 PUSH1 0x20 ADD SWAP2 PUSH2 0x937 JUMP JUMPDEST DUP3 ADD SWAP2 SWAP1 PUSH1 0x0 MSTORE PUSH1 0x20 PUSH1 0x0 KECCAK256 SWAP1 JUMPDEST DUP2 SLOAD DUP2 MSTORE SWAP1 PUSH1 0x1 ADD SWAP1 PUSH1 0x20 ADD DUP1 DUP4 GT PUSH2 0x91A JUMPI DUP3 SWAP1 SUB PUSH1 0x1F AND DUP3 ADD SWAP2 JUMPDEST POP POP POP POP POP DUP2 MSTORE PUSH1 0x20 ADD PUSH1 0x7 DUP3 ADD SLOAD DUP2 MSTORE PUSH1 0x20 ADD PUSH1 0x8 DUP3 ADD DUP1 SLOAD PUSH2 0x95A SWAP1 PUSH2 0xEAC JUMP JUMPDEST DUP1 PUSH1 0x1F ADD PUSH1 0x20 DUP1 SWAP2 DIV MUL PUSH1 0x20 ADD PUSH1 0x40 MLOAD SWAP1 DUP2 ADD PUSH1 0x40 MSTORE DUP1 SWAP3 SWAP2 SWAP1 DUP2 DUP2 MSTORE PUSH1 0x20 ADD DUP3 DUP1 SLOAD PUSH2 0x986 SWAP1 PUSH2 0xEAC JUMP JUMPDEST DUP1 ISZERO PUSH2 0x9D3 JUMPI DUP1 PUSH1 0x1F LT PUSH2 0x9A8 JUMPI PUSH2 0x100 DUP1 DUP4 SLOAD DIV MUL DUP4 MSTORE SWAP2 PUSH1 0x20 ADD SWAP2 PUSH2 0x9D3 JUMP JUMPDEST DUP3 ADD SWAP2 SWAP1 PUSH1 0x0 MSTORE PUSH1 0x20 PUSH1 0x0 KECCAK256 SWAP1 JUMPDEST DUP2 SLOAD DUP2 MSTORE SWAP1 PUSH1 0x1 ADD SWAP1 PUSH1 0x20 ADD DUP1 DUP4 GT PUSH2 0x9B6 JUMPI DUP3 SWAP1 SUB PUSH1 0x1F AND DUP3 ADD SWAP2 JUMPDEST POP POP POP POP POP DUP2 MSTORE POP POP DUP5 DUP7 DUP2 MLOAD DUP2 LT PUSH2 0x9EE JUMPI PUSH2 0x9EE PUSH2 0xEE7 JUMP JUMPDEST PUSH1 0x20 MUL PUSH1 0x20 ADD ADD DUP2 SWAP1 MSTORE POP DUP5 DUP1 PUSH2 0xA04 SWAP1 PUSH2 0xEFD JUMP JUMPDEST SWAP6 POP POP POP POP DUP1 DUP1 PUSH2 0xA14 SWAP1 PUSH2 0xEFD JUMP JUMPDEST SWAP2 POP POP PUSH2 0x77D JUMP JUMPDEST POP SWAP4 SWAP3 POP POP POP JUMP JUMPDEST PUSH1 0x2 PUSH1 0x0 SLOAD EQ ISZERO PUSH2 0xA7B JUMPI PUSH1 0x40 MLOAD PUSH3 0x461BCD PUSH1 0xE5 SHL DUP2 MSTORE PUSH1 0x20 PUSH1 0x4 DUP3 ADD MSTORE PUSH1 0x1F PUSH1 0x24 DUP3 ADD MSTORE PUSH32 0x5265656E7472616E637947756172643A207265656E7472616E742063616C6C00 PUSH1 0x44 DUP3 ADD MSTORE PUSH1 0x64 ADD PUSH1 0x40 MLOAD DUP1 SWAP2 SUB SWAP1 REVERT JUMPDEST PUSH1 0x2 PUSH1 0x0 SSTORE JUMP JUMPDEST PUSH1 0x40 MLOAD DUP1 PUSH2 0x140 ADD PUSH1 0x40 MSTORE DUP1 PUSH1 0x0 DUP2 MSTORE PUSH1 0x20 ADD PUSH1 0x0 PUSH1 0x1 PUSH1 0x1 PUSH1 0xA0 SHL SUB AND DUP2 MSTORE PUSH1 0x20 ADD PUSH1 0x0 DUP2 MSTORE PUSH1 0x20 ADD PUSH1 0x0 PUSH1 0x1 PUSH1 0x1 PUSH1 0xA0 SHL SUB AND DUP2 MSTORE PUSH1 0x20 ADD PUSH1 0x0 PUSH1 0x1 PUSH1 0x1 PUSH1 0xA0 SHL SUB AND DUP2 MSTORE PUSH1 0x20 ADD PUSH1 0x0 ISZERO ISZERO DUP2 MSTORE PUSH1 0x20 ADD PUSH1 0x60 DUP2 MSTORE PUSH1 0x20 ADD PUSH1 0x60 DUP2 MSTORE PUSH1 0x20 ADD PUSH1 0x0 DUP2 MSTORE PUSH1 0x20 ADD PUSH1 0x60 DUP2 MSTORE POP SWAP1 JUMP JUMPDEST DUP3 DUP1 SLOAD PUSH2 0xAFE SWAP1 PUSH2 0xEAC JUMP JUMPDEST SWAP1 PUSH1 0x0 MSTORE PUSH1 0x20 PUSH1 0x0 KECCAK256 SWAP1 PUSH1 0x1F ADD PUSH1 0x20 SWAP1 DIV DUP2 ADD SWAP3 DUP3 PUSH2 0xB20 JUMPI PUSH1 0x0 DUP6 SSTORE PUSH2 0xB66 JUMP JUMPDEST DUP3 PUSH1 0x1F LT PUSH2 0xB39 JUMPI DUP1 MLOAD PUSH1 0xFF NOT AND DUP4 DUP1 ADD OR DUP6 SSTORE PUSH2 0xB66 JUMP JUMPDEST DUP3 DUP1 ADD PUSH1 0x1 ADD DUP6 SSTORE DUP3 ISZERO PUSH2 0xB66 JUMPI SWAP2 DUP3 ADD JUMPDEST DUP3 DUP2 GT ISZERO PUSH2 0xB66 JUMPI DUP3 MLOAD DUP3 SSTORE SWAP2 PUSH1 0x20 ADD SWAP2 SWAP1 PUSH1 0x1 ADD SWAP1 PUSH2 0xB4B JUMP JUMPDEST POP PUSH2 0xB72 SWAP3 SWAP2 POP PUSH2 0xB76 JUMP JUMPDEST POP SWAP1 JUMP JUMPDEST JUMPDEST DUP1 DUP3 GT ISZERO PUSH2 0xB72 JUMPI PUSH1 0x0 DUP2 SSTORE PUSH1 0x1 ADD PUSH2 0xB77 JUMP JUMPDEST PUSH1 0x0 DUP2 MLOAD DUP1 DUP5 MSTORE PUSH1 0x0 JUMPDEST DUP2 DUP2 LT ISZERO PUSH2 0xBB1 JUMPI PUSH1 0x20 DUP2 DUP6 ADD DUP2 ADD MLOAD DUP7 DUP4 ADD DUP3 ADD MSTORE ADD PUSH2 0xB95 JUMP JUMPDEST DUP2 DUP2 GT ISZERO PUSH2 0xBC3 JUMPI PUSH1 0x0 PUSH1 0x20 DUP4 DUP8 ADD ADD MSTORE JUMPDEST POP PUSH1 0x1F ADD PUSH1 0x1F NOT AND SWAP3 SWAP1 SWAP3 ADD PUSH1 0x20 ADD SWAP3 SWAP2 POP POP JUMP JUMPDEST PUSH1 0x0 PUSH1 0x20 DUP1 DUP4 ADD DUP2 DUP5 MSTORE DUP1 DUP6 MLOAD DUP1 DUP4 MSTORE PUSH1 0x40 SWAP3 POP DUP3 DUP7 ADD SWAP2 POP DUP3 DUP2 PUSH1 0x5 SHL DUP8 ADD ADD DUP5 DUP9 ADD PUSH1 0x0 JUMPDEST DUP4 DUP2 LT ISZERO PUSH2 0xCCD JUMPI PUSH1 0x3F NOT DUP10 DUP5 SUB ADD DUP6 MSTORE DUP2 MLOAD DUP1 MLOAD DUP5 MSTORE DUP8 DUP2 ADD MLOAD PUSH1 0x1 PUSH1 0x1 PUSH1 0xA0 SHL SUB SWAP1 DUP2 AND DUP10 DUP7 ADD MSTORE DUP8 DUP3 ADD MLOAD DUP9 DUP7 ADD MSTORE PUSH1 0x60 DUP1 DUP4 ADD MLOAD DUP3 AND SWAP1 DUP7 ADD MSTORE PUSH1 0x80 DUP1 DUP4 ADD MLOAD SWAP1 SWAP2 AND SWAP1 DUP6 ADD MSTORE PUSH1 0xA0 DUP1 DUP3 ADD MLOAD ISZERO ISZERO SWAP1 DUP6 ADD MSTORE PUSH1 0xC0 DUP1 DUP3 ADD MLOAD PUSH2 0x140 DUP3 DUP8 ADD DUP2 SWAP1 MSTORE SWAP2 SWAP1 PUSH2 0xC73 DUP4 DUP9 ADD DUP3 PUSH2 0xB8B JUMP JUMPDEST SWAP3 POP POP POP PUSH1 0xE0 DUP1 DUP4 ADD MLOAD DUP7 DUP4 SUB DUP3 DUP9 ADD MSTORE PUSH2 0xC8E DUP4 DUP3 PUSH2 0xB8B JUMP JUMPDEST SWAP3 POP POP POP PUSH2 0x100 DUP1 DUP4 ADD MLOAD DUP2 DUP8 ADD MSTORE POP PUSH2 0x120 DUP1 DUP4 ADD MLOAD SWAP3 POP DUP6 DUP3 SUB DUP2 DUP8 ADD MSTORE POP PUSH2 0xCB9 DUP2 DUP4 PUSH2 0xB8B JUMP JUMPDEST SWAP7 DUP10 ADD SWAP7 SWAP5 POP POP POP SWAP1 DUP7 ADD SWAP1 PUSH1 0x1 ADD PUSH2 0xBFF JUMP JUMPDEST POP SWAP1 SWAP9 SWAP8 POP POP POP POP POP POP POP POP JUMP JUMPDEST DUP1 CALLDATALOAD PUSH1 0x1 PUSH1 0x1 PUSH1 0xA0 SHL SUB DUP2 AND DUP2 EQ PUSH2 0xCF2 JUMPI PUSH1 0x0 DUP1 REVERT JUMPDEST SWAP2 SWAP1 POP JUMP JUMPDEST PUSH4 0x4E487B71 PUSH1 0xE0 SHL PUSH1 0x0 MSTORE PUSH1 0x41 PUSH1 0x4 MSTORE PUSH1 0x24 PUSH1 0x0 REVERT JUMPDEST PUSH1 0x0 DUP3 PUSH1 0x1F DUP4 ADD SLT PUSH2 0xD1E JUMPI PUSH1 0x0 DUP1 REVERT JUMPDEST DUP2 CALLDATALOAD PUSH8 0xFFFFFFFFFFFFFFFF DUP1 DUP3 GT ISZERO PUSH2 0xD39 JUMPI PUSH2 0xD39 PUSH2 0xCF7 JUMP JUMPDEST PUSH1 0x40 MLOAD PUSH1 0x1F DUP4 ADD PUSH1 0x1F NOT SWAP1 DUP2 AND PUSH1 0x3F ADD AND DUP2 ADD SWAP1 DUP3 DUP3 GT DUP2 DUP4 LT OR ISZERO PUSH2 0xD61 JUMPI PUSH2 0xD61 PUSH2 0xCF7 JUMP JUMPDEST DUP2 PUSH1 0x40 MSTORE DUP4 DUP2 MSTORE DUP7 PUSH1 0x20 DUP6 DUP9 ADD ADD GT ISZERO PUSH2 0xD7A JUMPI PUSH1 0x0 DUP1 REVERT JUMPDEST DUP4 PUSH1 0x20 DUP8 ADD PUSH1 0x20 DUP4 ADD CALLDATACOPY PUSH1 0x0 PUSH1 0x20 DUP6 DUP4 ADD ADD MSTORE DUP1 SWAP5 POP POP POP POP POP SWAP3 SWAP2 POP POP JUMP JUMPDEST PUSH1 0x0 DUP1 PUSH1 0x0 DUP1 PUSH1 0x0 PUSH1 0xA0 DUP7 DUP9 SUB SLT ISZERO PUSH2 0xDB2 JUMPI PUSH1 0x0 DUP1 REVERT JUMPDEST PUSH2 0xDBB DUP7 PUSH2 0xCDB JUMP JUMPDEST SWAP5 POP PUSH1 0x20 DUP7 ADD CALLDATALOAD SWAP4 POP PUSH1 0x40 DUP7 ADD CALLDATALOAD PUSH8 0xFFFFFFFFFFFFFFFF DUP1 DUP3 GT ISZERO PUSH2 0xDDF JUMPI PUSH1 0x0 DUP1 REVERT JUMPDEST PUSH2 0xDEB DUP10 DUP4 DUP11 ADD PUSH2 0xD0D JUMP JUMPDEST SWAP5 POP PUSH1 0x60 DUP9 ADD CALLDATALOAD SWAP2 POP DUP1 DUP3 GT ISZERO PUSH2 0xE01 JUMPI PUSH1 0x0 DUP1 REVERT JUMPDEST PUSH2 0xE0D DUP10 DUP4 DUP11 ADD PUSH2 0xD0D JUMP JUMPDEST SWAP4 POP PUSH1 0x80 DUP9 ADD CALLDATALOAD SWAP2 POP DUP1 DUP3 GT ISZERO PUSH2 0xE23 JUMPI PUSH1 0x0 DUP1 REVERT JUMPDEST POP PUSH2 0xE30 DUP9 DUP3 DUP10 ADD PUSH2 0xD0D JUMP JUMPDEST SWAP2 POP POP SWAP3 SWAP6 POP SWAP3 SWAP6 SWAP1 SWAP4 POP JUMP JUMPDEST PUSH1 0x0 DUP1 PUSH1 0x40 DUP4 DUP6 SUB SLT ISZERO PUSH2 0xE50 JUMPI PUSH1 0x0 DUP1 REVERT JUMPDEST PUSH2 0xE59 DUP4 PUSH2 0xCDB JUMP JUMPDEST SWAP5 PUSH1 0x20 SWAP4 SWAP1 SWAP4 ADD CALLDATALOAD SWAP4 POP POP POP JUMP JUMPDEST PUSH4 0x4E487B71 PUSH1 0xE0 SHL PUSH1 0x0 MSTORE PUSH1 0x11 PUSH1 0x4 MSTORE PUSH1 0x24 PUSH1 0x0 REVERT JUMPDEST PUSH1 0x0 DUP3 DUP3 LT ISZERO PUSH2 0xE8F JUMPI PUSH2 0xE8F PUSH2 0xE67 JUMP JUMPDEST POP SUB SWAP1 JUMP JUMPDEST PUSH1 0x0 DUP3 NOT DUP3 GT ISZERO PUSH2 0xEA7 JUMPI PUSH2 0xEA7 PUSH2 0xE67 JUMP JUMPDEST POP ADD SWAP1 JUMP JUMPDEST PUSH1 0x1 DUP2 DUP2 SHR SWAP1 DUP3 AND DUP1 PUSH2 0xEC0 JUMPI PUSH1 0x7F DUP3 AND SWAP2 POP JUMPDEST PUSH1 0x20 DUP3 LT DUP2 EQ ISZERO PUSH2 0xEE1 JUMPI PUSH4 0x4E487B71 PUSH1 0xE0 SHL PUSH1 0x0 MSTORE PUSH1 0x22 PUSH1 0x4 MSTORE PUSH1 0x24 PUSH1 0x0 REVERT JUMPDEST POP SWAP2 SWAP1 POP JUMP JUMPDEST PUSH4 0x4E487B71 PUSH1 0xE0 SHL PUSH1 0x0 MSTORE PUSH1 0x32 PUSH1 0x4 MSTORE PUSH1 0x24 PUSH1 0x0 REVERT JUMPDEST PUSH1 0x0 PUSH1 0x0 NOT DUP3 EQ ISZERO PUSH2 0xF11 JUMPI PUSH2 0xF11 PUSH2 0xE67 JUMP JUMPDEST POP PUSH1 0x1 ADD SWAP1 JUMP JUMPDEST PUSH1 0x1 PUSH1 0x1 PUSH1 0xA0 SHL SUB DUP9 DUP2 AND DUP3 MSTORE DUP8 AND PUSH1 0x20 DUP3 ADD MSTORE DUP6 ISZERO ISZERO PUSH1 0x40 DUP3 ADD MSTORE PUSH1 0xE0 PUSH1 0x60 DUP3 ADD DUP2 SWAP1 MSTORE PUSH1 0x0 SWAP1 PUSH2 0xF4C SWAP1 DUP4 ADD DUP8 PUSH2 0xB8B JUMP JUMPDEST DUP3 DUP2 SUB PUSH1 0x80 DUP5 ADD MSTORE PUSH2 0xF5E DUP2 DUP8 PUSH2 0xB8B JUMP JUMPDEST SWAP1 POP DUP5 PUSH1 0xA0 DUP5 ADD MSTORE DUP3 DUP2 SUB PUSH1 0xC0 DUP5 ADD MSTORE PUSH2 0xF78 DUP2 DUP6 PUSH2 0xB8B JUMP JUMPDEST SWAP11 SWAP10 POP POP POP POP POP POP POP POP POP POP JUMP INVALID LOG2 PUSH5 0x6970667358 0x22 SLT KECCAK256 PUSH7 0x7D21E702271A7F ADDMOD 0xCF BYTE CALLVALUE 0x28 CODESIZE 0xFC 0xB9 0xAA 0x4A CALLCODE 0x4A SWAP13 0x23 MULMOD STOP 0xB8 0xC9 0xBE 0xCB 0xEC DUP9 0x4E 0xE4 PUSH5 0x736F6C6343 STOP ADDMOD MULMOD STOP CALLER "},"methodIdentifiers":{"AllocateOrgan(address,uint256)":"7bfd8cce","ListOrgan(address,uint256,string,string,string)":"41d09885","fetchAllOrgans()":"a85d41ee","fetchOrganItems()":"11d10361"}}}}}