{
  "_format": "hh-sol-artifact-1",
  "contractName": "Patient",
  "sourceName": "contracts/Patient.sol",
  "abi": [
    {
      "anonymous": false,
      "inputs": [
        {
          "indexed": true,
          "internalType": "address",
          "name": "patientAddress",
          "type": "address"
        },
        {
          "indexed": false,
          "internalType": "string",
          "name": "url",
          "type": "string"
        },
        {
          "indexed": false,
          "internalType": "string",
          "name": "patientName",
          "type": "string"
        },
        {
          "indexed": false,
          "internalType": "uint256",
          "name": "patientAge",
          "type": "uint256"
        },
        {
          "indexed": true,
          "internalType": "uint256",
          "name": "patientNumber",
          "type": "uint256"
        },
        {
          "indexed": false,
          "internalType": "uint256",
          "name": "unixTime",
          "type": "uint256"
        },
        {
          "indexed": false,
          "internalType": "bool",
          "name": "allocated",
          "type": "bool"
        },
        {
          "indexed": false,
          "internalType": "string",
          "name": "organType",
          "type": "string"
        },
        {
          "indexed": false,
          "internalType": "string",
          "name": "bloodType",
          "type": "string"
        },
        {
          "indexed": false,
          "internalType": "bool",
          "name": "status",
          "type": "bool"
        }
      ],
      "name": "NewPatientListed",
      "type": "event"
    },
    {
      "anonymous": false,
      "inputs": [
        {
          "indexed": true,
          "internalType": "address",
          "name": "patientAddress",
          "type": "address"
        },
        {
          "indexed": false,
          "internalType": "string",
          "name": "url",
          "type": "string"
        },
        {
          "indexed": false,
          "internalType": "string",
          "name": "patientName",
          "type": "string"
        },
        {
          "indexed": false,
          "internalType": "uint256",
          "name": "patientAge",
          "type": "uint256"
        },
        {
          "indexed": true,
          "internalType": "uint256",
          "name": "patientNumber",
          "type": "uint256"
        },
        {
          "indexed": false,
          "internalType": "uint256",
          "name": "unixTime",
          "type": "uint256"
        },
        {
          "indexed": false,
          "internalType": "bool",
          "name": "allocated",
          "type": "bool"
        },
        {
          "indexed": false,
          "internalType": "string",
          "name": "organType",
          "type": "string"
        },
        {
          "indexed": false,
          "internalType": "string",
          "name": "bloodType",
          "type": "string"
        },
        {
          "indexed": false,
          "internalType": "bool",
          "name": "status",
          "type": "bool"
        }
      ],
      "name": "UpdatePatientListing",
      "type": "event"
    },
    {
      "inputs": [],
      "name": "getAliveCount",
      "outputs": [
        {
          "internalType": "uint256",
          "name": "",
          "type": "uint256"
        }
      ],
      "stateMutability": "view",
      "type": "function"
    },
    {
      "inputs": [],
      "name": "getAllAddress",
      "outputs": [
        {
          "internalType": "address[]",
          "name": "",
          "type": "address[]"
        }
      ],
      "stateMutability": "view",
      "type": "function"
    },
    {
      "inputs": [],
      "name": "getAllPatients",
      "outputs": [
        {
          "components": [
            {
              "internalType": "address",
              "name": "patientAddress",
              "type": "address"
            },
            {
              "internalType": "string",
              "name": "url",
              "type": "string"
            },
            {
              "internalType": "string",
              "name": "patientName",
              "type": "string"
            },
            {
              "internalType": "uint256",
              "name": "patientAge",
              "type": "uint256"
            },
            {
              "internalType": "uint256",
              "name": "patientNumber",
              "type": "uint256"
            },
            {
              "internalType": "uint256",
              "name": "unixTime",
              "type": "uint256"
            },
            {
              "internalType": "bool",
              "name": "allocated",
              "type": "bool"
            },
            {
              "internalType": "string",
              "name": "organType",
              "type": "string"
            },
            {
              "internalType": "string",
              "name": "bloodType",
              "type": "string"
            },
            {
              "internalType": "bool",
              "name": "status",
              "type": "bool"
            }
          ],
          "internalType": "struct Patient.patientDetail[]",
          "name": "",
          "type": "tuple[]"
        }
      ],
      "stateMutability": "view",
      "type": "function"
    },
    {
      "inputs": [],
      "name": "getAllRecords",
      "outputs": [
        {
          "components": [
            {
              "internalType": "address",
              "name": "patientAddress",
              "type": "address"
            },
            {
              "internalType": "string",
              "name": "url",
              "type": "string"
            },
            {
              "internalType": "string",
              "name": "patientName",
              "type": "string"
            },
            {
              "internalType": "uint256",
              "name": "patientAge",
              "type": "uint256"
            },
            {
              "internalType": "uint256",
              "name": "patientNumber",
              "type": "uint256"
            },
            {
              "internalType": "uint256",
              "name": "unixTime",
              "type": "uint256"
            },
            {
              "internalType": "bool",
              "name": "allocated",
              "type": "bool"
            },
            {
              "internalType": "string",
              "name": "organType",
              "type": "string"
            },
            {
              "internalType": "string",
              "name": "bloodType",
              "type": "string"
            },
            {
              "internalType": "bool",
              "name": "status",
              "type": "bool"
            }
          ],
          "internalType": "struct Patient.patientDetail[]",
          "name": "",
          "type": "tuple[]"
        }
      ],
      "stateMutability": "view",
      "type": "function"
    },
    {
      "inputs": [],
      "name": "getPatientCount",
      "outputs": [
        {
          "internalType": "uint256",
          "name": "count",
          "type": "uint256"
        }
      ],
      "stateMutability": "view",
      "type": "function"
    },
    {
      "inputs": [
        {
          "internalType": "address",
          "name": "patientAddress",
          "type": "address"
        },
        {
          "internalType": "string",
          "name": "url",
          "type": "string"
        },
        {
          "internalType": "string",
          "name": "name",
          "type": "string"
        },
        {
          "internalType": "uint256",
          "name": "age",
          "type": "uint256"
        },
        {
          "internalType": "string",
          "name": "organType",
          "type": "string"
        },
        {
          "internalType": "string",
          "name": "bloodType",
          "type": "string"
        }
      ],
      "name": "listNewPatient",
      "outputs": [],
      "stateMutability": "nonpayable",
      "type": "function"
    },
    {
      "inputs": [
        {
          "internalType": "uint256",
          "name": "patNumber",
          "type": "uint256"
        }
      ],
      "name": "organReceived",
      "outputs": [],
      "stateMutability": "nonpayable",
      "type": "function"
    },
    {
      "inputs": [
        {
          "internalType": "uint256",
          "name": "patNumber",
          "type": "uint256"
        }
      ],
      "name": "patientDeceased",
      "outputs": [],
      "stateMutability": "nonpayable",
      "type": "function"
    }
  ],
  "bytecode": "0x608060405234801561001057600080fd5b50611054806100206000396000f3fe608060405234801561001057600080fd5b50600436106100885760003560e01c8063759dd08e1161005b578063759dd08e146100fe578063a7f9fe7214610114578063c190665b1461011c578063e87acadf146100c057600080fd5b806318a231a91461008d5780631b626ee6146100ab5780633ec27c21146100c0578063715b208b146100e9575b600080fd5b610095610124565b6040516100a29190610c0f565b60405180910390f35b6100be6100b9366004610de3565b610495565b005b6100be6100ce366004610ea9565b6000908152602081905260409020600901805460ff19169055565b6100f1610658565b6040516100a29190610ec2565b61010661071f565b6040519081526020016100a2565b610095610768565b600154610106565b60015460609060009067ffffffffffffffff81111561014557610145610d40565b60405190808252806020026020018201604052801561017e57816020015b61016b610ac9565b8152602001906001900390816101635790505b50905060005b60015481101561048f5760008181526020819052604090206009015460ff161561047d57600081815260208181526040918290208251610140810190935280546001600160a01b0316835260018101805491928401916101e390610f0f565b80601f016020809104026020016040519081016040528092919081815260200182805461020f90610f0f565b801561025c5780601f106102315761010080835404028352916020019161025c565b820191906000526020600020905b81548152906001019060200180831161023f57829003601f168201915b5050505050815260200160028201805461027590610f0f565b80601f01602080910402602001604051908101604052809291908181526020018280546102a190610f0f565b80156102ee5780601f106102c3576101008083540402835291602001916102ee565b820191906000526020600020905b8154815290600101906020018083116102d157829003601f168201915b5050509183525050600382015460208201526004820154604082015260058201546060820152600682015460ff161515608082015260078201805460a09092019161033890610f0f565b80601f016020809104026020016040519081016040528092919081815260200182805461036490610f0f565b80156103b15780601f10610386576101008083540402835291602001916103b1565b820191906000526020600020905b81548152906001019060200180831161039457829003601f168201915b505050505081526020016008820180546103ca90610f0f565b80601f01602080910402602001604051908101604052809291908181526020018280546103f690610f0f565b80156104435780601f1061041857610100808354040283529160200191610443565b820191906000526020600020905b81548152906001019060200180831161042657829003601f168201915b50505091835250506009919091015460ff161515602090910152825183908390811061047157610471610f44565b60200260200101819052505b8061048781610f70565b915050610184565b50919050565b60018054808201825560008281527fb10e2d527612073b26eecdfd717e6a320cf44b4afac2b0732d9fcbe2b7fa0cf690910180546001600160a01b0319166001600160a01b038a16179055815490916104ed91610f8b565b60008181526020818152604090912080546001600160a01b0319166001600160a01b038b16178155885192935061052c92600190910191890190610b29565b50600081815260208181526040909120865161055092600290920191880190610b29565b50600081815260208190526040902060038101859055426005820155600601805460ff19169055600180546105859190610f8b565b600082815260208181526040909120600481019290925584516105ae9260070191860190610b29565b5060008181526020818152604090912083516105d292600890920191850190610b29565b506000818152602081905260409020600901805460ff1916600190811790915580546105fe9190610f8b565b876001600160a01b03167f285251631e90f2dcebf74adcb3bd18e8b299aca04e235ac2b47d0b9249d75fbf8888884260008a8a6001604051610647989796959493929190610fa2565b60405180910390a350505050505050565b60015460609060009067ffffffffffffffff81111561067957610679610d40565b6040519080825280602002602001820160405280156106a2578160200160208202803683370190505b50905060005b60015481101561048f57600181815481106106c5576106c5610f44565b9060005260206000200160009054906101000a90046001600160a01b03168282815181106106f5576106f5610f44565b6001600160a01b03909216602092830291909101909101528061071781610f70565b9150506106a8565b600080805b60015481101561048f5760008181526020819052604090206009015460ff1615610756578161075281610f70565b9250505b8061076081610f70565b915050610724565b6060600061077560015490565b905060008167ffffffffffffffff81111561079257610792610d40565b6040519080825280602002602001820160405280156107cb57816020015b6107b8610ac9565b8152602001906001900390816107b05790505b50905060005b600154811015610ac257600081815260208181526040918290208251610140810190935280546001600160a01b03168352600181018054919284019161081690610f0f565b80601f016020809104026020016040519081016040528092919081815260200182805461084290610f0f565b801561088f5780601f106108645761010080835404028352916020019161088f565b820191906000526020600020905b81548152906001019060200180831161087257829003601f168201915b505050505081526020016002820180546108a890610f0f565b80601f01602080910402602001604051908101604052809291908181526020018280546108d490610f0f565b80156109215780601f106108f657610100808354040283529160200191610921565b820191906000526020600020905b81548152906001019060200180831161090457829003601f168201915b5050509183525050600382015460208201526004820154604082015260058201546060820152600682015460ff161515608082015260078201805460a09092019161096b90610f0f565b80601f016020809104026020016040519081016040528092919081815260200182805461099790610f0f565b80156109e45780601f106109b9576101008083540402835291602001916109e4565b820191906000526020600020905b8154815290600101906020018083116109c757829003601f168201915b505050505081526020016008820180546109fd90610f0f565b80601f0160208091040260200160405190810160405280929190818152602001828054610a2990610f0f565b8015610a765780601f10610a4b57610100808354040283529160200191610a76565b820191906000526020600020905b815481529060010190602001808311610a5957829003601f168201915b50505091835250506009919091015460ff1615156020909101528251839083908110610aa457610aa4610f44565b60200260200101819052508080610aba90610f70565b9150506107d1565b5092915050565b60405180610140016040528060006001600160a01b03168152602001606081526020016060815260200160008152602001600081526020016000815260200160001515815260200160608152602001606081526020016000151581525090565b828054610b3590610f0f565b90600052602060002090601f016020900481019282610b575760008555610b9d565b82601f10610b7057805160ff1916838001178555610b9d565b82800160010185558215610b9d579182015b82811115610b9d578251825591602001919060010190610b82565b50610ba9929150610bad565b5090565b5b80821115610ba95760008155600101610bae565b6000815180845260005b81811015610be857602081850181015186830182015201610bcc565b81811115610bfa576000602083870101525b50601f01601f19169290920160200192915050565b60006020808301818452808551808352604092508286019150828160051b87010184880160005b83811015610d1657888303603f19018552815180516001600160a01b0316845261014088820151818a870152610c6e82870182610bc2565b9150508782015185820389870152610c868282610bc2565b606084810151908801526080808501519088015260a0808501519088015260c08085015115159088015260e080850151888303828a01529193509150610ccc8382610bc2565b925050506101008083015186830382880152610ce88382610bc2565b92505050610120808301519250610d028187018415159052565b509588019593505090860190600101610c36565b509098975050505050505050565b80356001600160a01b0381168114610d3b57600080fd5b919050565b634e487b7160e01b600052604160045260246000fd5b600082601f830112610d6757600080fd5b813567ffffffffffffffff80821115610d8257610d82610d40565b604051601f8301601f19908116603f01168101908282118183101715610daa57610daa610d40565b81604052838152866020858801011115610dc357600080fd5b836020870160208301376000602085830101528094505050505092915050565b60008060008060008060c08789031215610dfc57600080fd5b610e0587610d24565b9550602087013567ffffffffffffffff80821115610e2257600080fd5b610e2e8a838b01610d56565b96506040890135915080821115610e4457600080fd5b610e508a838b01610d56565b9550606089013594506080890135915080821115610e6d57600080fd5b610e798a838b01610d56565b935060a0890135915080821115610e8f57600080fd5b50610e9c89828a01610d56565b9150509295509295509295565b600060208284031215610ebb57600080fd5b5035919050565b6020808252825182820181905260009190848201906040850190845b81811015610f035783516001600160a01b031683529284019291840191600101610ede565b50909695505050505050565b600181811c90821680610f2357607f821691505b6020821081141561048f57634e487b7160e01b600052602260045260246000fd5b634e487b7160e01b600052603260045260246000fd5b634e487b7160e01b600052601160045260246000fd5b6000600019821415610f8457610f84610f5a565b5060010190565b600082821015610f9d57610f9d610f5a565b500390565b6000610100808352610fb68184018c610bc2565b90508281036020840152610fca818b610bc2565b9050886040840152876060840152861515608084015282810360a0840152610ff28187610bc2565b905082810360c08401526110068186610bc2565b91505082151560e0830152999850505050505050505056fea2646970667358221220bce79338bf822819934435de8b52dbe9239a210dd9508e97c67274e3522fd69a64736f6c63430008090033",
  "linkReferences": {},
  "deployedLinkReferences": {}
}