{
  "_format": "hh-sol-artifact-1",
  "contractName": "OrganListing",
  "sourceName": "contracts/OrganListing.sol",
  "abi": [
    {
      "anonymous": false,
      "inputs": [
        {
          "indexed": true,
          "internalType": "uint256",
          "name": "organId",
          "type": "uint256"
        },
        {
          "indexed": true,
          "internalType": "address",
          "name": "organContract",
          "type": "address"
        },
        {
          "indexed": true,
          "internalType": "uint256",
          "name": "tokenId",
          "type": "uint256"
        },
        {
          "indexed": false,
          "internalType": "address",
          "name": "donor",
          "type": "address"
        },
        {
          "indexed": false,
          "internalType": "address",
          "name": "recipient",
          "type": "address"
        },
        {
          "indexed": false,
          "internalType": "bool",
          "name": "allocated",
          "type": "bool"
        },
        {
          "indexed": false,
          "internalType": "string",
          "name": "organType",
          "type": "string"
        },
        {
          "indexed": false,
          "internalType": "string",
          "name": "bloodGroup",
          "type": "string"
        },
        {
          "indexed": false,
          "internalType": "uint256",
          "name": "expiryTime",
          "type": "uint256"
        },
        {
          "indexed": false,
          "internalType": "string",
          "name": "url",
          "type": "string"
        }
      ],
      "name": "NewOrganListed",
      "type": "event"
    },
    {
      "inputs": [
        {
          "internalType": "address",
          "name": "cmoAddress",
          "type": "address"
        },
        {
          "internalType": "uint256",
          "name": "organId",
          "type": "uint256"
        }
      ],
      "name": "AllocateOrgan",
      "outputs": [],
      "stateMutability": "nonpayable",
      "type": "function"
    },
    {
      "inputs": [
        {
          "internalType": "address",
          "name": "cmoAddress",
          "type": "address"
        },
        {
          "internalType": "uint256",
          "name": "tokenId",
          "type": "uint256"
        },
        {
          "internalType": "string",
          "name": "organType",
          "type": "string"
        },
        {
          "internalType": "string",
          "name": "bloodGroup",
          "type": "string"
        },
        {
          "internalType": "string",
          "name": "ipfsUrl",
          "type": "string"
        }
      ],
      "name": "ListOrgan",
      "outputs": [],
      "stateMutability": "nonpayable",
      "type": "function"
    },
    {
      "inputs": [],
      "name": "fetchOrganItems",
      "outputs": [
        {
          "components": [
            {
              "internalType": "uint256",
              "name": "organId",
              "type": "uint256"
            },
            {
              "internalType": "address",
              "name": "organContract",
              "type": "address"
            },
            {
              "internalType": "uint256",
              "name": "tokenId",
              "type": "uint256"
            },
            {
              "internalType": "address",
              "name": "donor",
              "type": "address"
            },
            {
              "internalType": "address",
              "name": "recipient",
              "type": "address"
            },
            {
              "internalType": "bool",
              "name": "allocated",
              "type": "bool"
            },
            {
              "internalType": "string",
              "name": "organType",
              "type": "string"
            },
            {
              "internalType": "string",
              "name": "bloodGroup",
              "type": "string"
            },
            {
              "internalType": "uint256",
              "name": "expiryTime",
              "type": "uint256"
            },
            {
              "internalType": "string",
              "name": "url",
              "type": "string"
            }
          ],
          "internalType": "struct OrganListing.ListedOrgan[]",
          "name": "",
          "type": "tuple[]"
        }
      ],
      "stateMutability": "view",
      "type": "function"
    }
  ],
  "bytecode": "0x608060405234801561001057600080fd5b506001600055610c93806100256000396000f3fe608060405234801561001057600080fd5b50600436106100415760003560e01c806311d103611461004657806341d09885146100645780637bfd8cce14610079575b600080fd5b61004e61008c565b60405161005b91906108af565b60405180910390f35b610077610072366004610a71565b610456565b005b610077610087366004610b14565b61069d565b6060600061009960015490565b905060006100a660025490565b6001546100b39190610b54565b90506000808267ffffffffffffffff8111156100d1576100d16109ce565b60405190808252806020026020018201604052801561017557816020015b6101626040518061014001604052806000815260200160006001600160a01b031681526020016000815260200160006001600160a01b0316815260200160006001600160a01b03168152602001600015158152602001606081526020016060815260200160008152602001606081525090565b8152602001906001900390816100ef5790505b50905060005b8481101561044d576000600381610193846001610b6b565b81526020810191909152604001600020600401546001600160a01b0316141561043b5760006003816101c6846001610b6b565b815260208082019290925260409081016000908120548082526003808552918390208351610140810185528154815260018201546001600160a01b0390811696820196909652600282015494810194909452918201548416606084015260048201549384166080840152600160a01b90930460ff16151560a08301526005810180549394509092839160c084019161025d90610b83565b80601f016020809104026020016040519081016040528092919081815260200182805461028990610b83565b80156102d65780601f106102ab576101008083540402835291602001916102d6565b820191906000526020600020905b8154815290600101906020018083116102b957829003601f168201915b505050505081526020016006820180546102ef90610b83565b80601f016020809104026020016040519081016040528092919081815260200182805461031b90610b83565b80156103685780601f1061033d57610100808354040283529160200191610368565b820191906000526020600020905b81548152906001019060200180831161034b57829003601f168201915b505050505081526020016007820154815260200160088201805461038b90610b83565b80601f01602080910402602001604051908101604052809291908181526020018280546103b790610b83565b80156104045780601f106103d957610100808354040283529160200191610404565b820191906000526020600020905b8154815290600101906020018083116103e757829003601f168201915b50505050508152505084868151811061041f5761041f610bbe565b6020026020010181905250848061043590610bd4565b95505050505b8061044581610bd4565b91505061017b565b50949350505050565b61045e61076b565b61046c600180546001019055565b600061047760015490565b60408051610140810182528281526001600160a01b038916602082015290810187905233606082015260006080820181905260a082015260c0810186905260e0810185905290915061010081016104d042614650610b6b565b815260209081018490526000838152600380835260409182902084518155848401516001820180546001600160a01b039283166001600160a01b031991821617909155938601516002830155606086015192820180549382169390941692909217909255608084015160048301805460a08701511515600160a01b026001600160a81b0319909116929093169190911791909117905560c083015180519192610581926005850192909101906107c9565b5060e0820151805161059d9160068401916020909101906107c9565b50610100820151600782015561012082015180516105c59160088401916020909101906107c9565b50506040516323b872dd60e01b8152336004820152306024820152604481018790526001600160a01b03881691506323b872dd90606401600060405180830381600087803b15801561061657600080fd5b505af115801561062a573d6000803e3d6000fd5b5050505084866001600160a01b0316827f67fa36328427cd3835f5c4f15f5a886aa9fc759a796f53128956724640cebc33336000808a8a4261465061066f9190610b6b565b8b6040516106839796959493929190610bef565b60405180910390a4506106966001600055565b5050505050565b6106a561076b565b600081815260036020526040908190206002015490516323b872dd60e01b8152306004820152336024820152604481018290526001600160a01b038416906323b872dd90606401600060405180830381600087803b15801561070657600080fd5b505af115801561071a573d6000803e3d6000fd5b5050506000838152600360205260409020600401805460ff60a01b1933166001600160a81b031990911617600160a01b1790555061075c600280546001019055565b506107676001600055565b5050565b600260005414156107c25760405162461bcd60e51b815260206004820152601f60248201527f5265656e7472616e637947756172643a207265656e7472616e742063616c6c00604482015260640160405180910390fd5b6002600055565b8280546107d590610b83565b90600052602060002090601f0160209004810192826107f7576000855561083d565b82601f1061081057805160ff191683800117855561083d565b8280016001018555821561083d579182015b8281111561083d578251825591602001919060010190610822565b5061084992915061084d565b5090565b5b80821115610849576000815560010161084e565b6000815180845260005b818110156108885760208185018101518683018201520161086c565b8181111561089a576000602083870101525b50601f01601f19169290920160200192915050565b60006020808301818452808551808352604092508286019150828160051b87010184880160005b838110156109a457603f19898403018552815180518452878101516001600160a01b039081168986015287820151888601526060808301518216908601526080808301519091169085015260a08082015115159085015260c080820151610140828701819052919061094a83880182610862565b9250505060e080830151868303828801526109658382610862565b9250505061010080830151818701525061012080830151925085820381870152506109908183610862565b9689019694505050908601906001016108d6565b509098975050505050505050565b80356001600160a01b03811681146109c957600080fd5b919050565b634e487b7160e01b600052604160045260246000fd5b600082601f8301126109f557600080fd5b813567ffffffffffffffff80821115610a1057610a106109ce565b604051601f8301601f19908116603f01168101908282118183101715610a3857610a386109ce565b81604052838152866020858801011115610a5157600080fd5b836020870160208301376000602085830101528094505050505092915050565b600080600080600060a08688031215610a8957600080fd5b610a92866109b2565b945060208601359350604086013567ffffffffffffffff80821115610ab657600080fd5b610ac289838a016109e4565b94506060880135915080821115610ad857600080fd5b610ae489838a016109e4565b93506080880135915080821115610afa57600080fd5b50610b07888289016109e4565b9150509295509295909350565b60008060408385031215610b2757600080fd5b610b30836109b2565b946020939093013593505050565b634e487b7160e01b600052601160045260246000fd5b600082821015610b6657610b66610b3e565b500390565b60008219821115610b7e57610b7e610b3e565b500190565b600181811c90821680610b9757607f821691505b60208210811415610bb857634e487b7160e01b600052602260045260246000fd5b50919050565b634e487b7160e01b600052603260045260246000fd5b6000600019821415610be857610be8610b3e565b5060010190565b6001600160a01b03888116825287166020820152851515604082015260e060608201819052600090610c2390830187610862565b8281036080840152610c358187610862565b90508460a084015282810360c0840152610c4f8185610862565b9a995050505050505050505056fea2646970667358221220094527230aa0473ef3771dfdb74f968b4dac2558acd30458954fb3b417d63a1564736f6c63430008090033",
  "linkReferences": {},
  "deployedLinkReferences": {}
}