{
  "_format": "hh-sol-artifact-1",
  "contractName": "OrganListing",
  "sourceName": "contracts/OrganListing.sol",
  "abi": [
    {
      "anonymous": false,
      "inputs": [
        {
          "indexed": true,
          "internalType": "uint256",
          "name": "organId",
          "type": "uint256"
        },
        {
          "indexed": true,
          "internalType": "address",
          "name": "organContract",
          "type": "address"
        },
        {
          "indexed": true,
          "internalType": "uint256",
          "name": "tokenId",
          "type": "uint256"
        },
        {
          "indexed": false,
          "internalType": "address",
          "name": "donor",
          "type": "address"
        },
        {
          "indexed": false,
          "internalType": "address",
          "name": "recipient",
          "type": "address"
        },
        {
          "indexed": false,
          "internalType": "bool",
          "name": "allocated",
          "type": "bool"
        },
        {
          "indexed": false,
          "internalType": "string",
          "name": "organType",
          "type": "string"
        },
        {
          "indexed": false,
          "internalType": "string",
          "name": "bloodGroup",
          "type": "string"
        },
        {
          "indexed": false,
          "internalType": "uint256",
          "name": "expiryTime",
          "type": "uint256"
        },
        {
          "indexed": false,
          "internalType": "string",
          "name": "url",
          "type": "string"
        }
      ],
      "name": "NewOrganListed",
      "type": "event"
    },
    {
      "inputs": [
        {
          "internalType": "address",
          "name": "cmoAddress",
          "type": "address"
        },
        {
          "internalType": "uint256",
          "name": "organId",
          "type": "uint256"
        }
      ],
      "name": "AllocateOrgan",
      "outputs": [],
      "stateMutability": "nonpayable",
      "type": "function"
    },
    {
      "inputs": [
        {
          "internalType": "address",
          "name": "cmoAddress",
          "type": "address"
        },
        {
          "internalType": "uint256",
          "name": "tokenId",
          "type": "uint256"
        },
        {
          "internalType": "string",
          "name": "organType",
          "type": "string"
        },
        {
          "internalType": "string",
          "name": "bloodGroup",
          "type": "string"
        },
        {
          "internalType": "string",
          "name": "ipfsUrl",
          "type": "string"
        }
      ],
      "name": "ListOrgan",
      "outputs": [],
      "stateMutability": "nonpayable",
      "type": "function"
    },
    {
      "inputs": [],
      "name": "fetchAllOrgans",
      "outputs": [
        {
          "components": [
            {
              "internalType": "uint256",
              "name": "organId",
              "type": "uint256"
            },
            {
              "internalType": "address",
              "name": "organContract",
              "type": "address"
            },
            {
              "internalType": "uint256",
              "name": "tokenId",
              "type": "uint256"
            },
            {
              "internalType": "address",
              "name": "donor",
              "type": "address"
            },
            {
              "internalType": "address",
              "name": "recipient",
              "type": "address"
            },
            {
              "internalType": "bool",
              "name": "allocated",
              "type": "bool"
            },
            {
              "internalType": "string",
              "name": "organType",
              "type": "string"
            },
            {
              "internalType": "string",
              "name": "bloodGroup",
              "type": "string"
            },
            {
              "internalType": "uint256",
              "name": "expiryTime",
              "type": "uint256"
            },
            {
              "internalType": "string",
              "name": "url",
              "type": "string"
            }
          ],
          "internalType": "struct OrganListing.ListedOrgan[]",
          "name": "",
          "type": "tuple[]"
        }
      ],
      "stateMutability": "view",
      "type": "function"
    },
    {
      "inputs": [],
      "name": "fetchOrganItems",
      "outputs": [
        {
          "components": [
            {
              "internalType": "uint256",
              "name": "organId",
              "type": "uint256"
            },
            {
              "internalType": "address",
              "name": "organContract",
              "type": "address"
            },
            {
              "internalType": "uint256",
              "name": "tokenId",
              "type": "uint256"
            },
            {
              "internalType": "address",
              "name": "donor",
              "type": "address"
            },
            {
              "internalType": "address",
              "name": "recipient",
              "type": "address"
            },
            {
              "internalType": "bool",
              "name": "allocated",
              "type": "bool"
            },
            {
              "internalType": "string",
              "name": "organType",
              "type": "string"
            },
            {
              "internalType": "string",
              "name": "bloodGroup",
              "type": "string"
            },
            {
              "internalType": "uint256",
              "name": "expiryTime",
              "type": "uint256"
            },
            {
              "internalType": "string",
              "name": "url",
              "type": "string"
            }
          ],
          "internalType": "struct OrganListing.ListedOrgan[]",
          "name": "",
          "type": "tuple[]"
        }
      ],
      "stateMutability": "view",
      "type": "function"
    }
  ],
  "bytecode": "0x608060405234801561001057600080fd5b506001600055610fbc806100256000396000f3fe608060405234801561001057600080fd5b506004361061004c5760003560e01c806311d103611461005157806341d098851461006f5780637bfd8cce14610084578063a85d41ee14610097575b600080fd5b61005961009f565b6040516100669190610bd8565b60405180910390f35b61008261007d366004610d9a565b6103fe565b005b610082610092366004610e3d565b610645565b610059610713565b606060006100ac60015490565b905060006100b960025490565b6001546100c69190610e7d565b90506000808267ffffffffffffffff8111156100e4576100e4610cf7565b60405190808252806020026020018201604052801561011d57816020015b61010a610a82565b8152602001906001900390816101025790505b50905060005b848110156103f557600060038161013b846001610e94565b81526020810191909152604001600020600401546001600160a01b031614156103e357600060038161016e846001610e94565b815260208082019290925260409081016000908120548082526003808552918390208351610140810185528154815260018201546001600160a01b0390811696820196909652600282015494810194909452918201548416606084015260048201549384166080840152600160a01b90930460ff16151560a08301526005810180549394509092839160c084019161020590610eac565b80601f016020809104026020016040519081016040528092919081815260200182805461023190610eac565b801561027e5780601f106102535761010080835404028352916020019161027e565b820191906000526020600020905b81548152906001019060200180831161026157829003601f168201915b5050505050815260200160068201805461029790610eac565b80601f01602080910402602001604051908101604052809291908181526020018280546102c390610eac565b80156103105780601f106102e557610100808354040283529160200191610310565b820191906000526020600020905b8154815290600101906020018083116102f357829003601f168201915b505050505081526020016007820154815260200160088201805461033390610eac565b80601f016020809104026020016040519081016040528092919081815260200182805461035f90610eac565b80156103ac5780601f10610381576101008083540402835291602001916103ac565b820191906000526020600020905b81548152906001019060200180831161038f57829003601f168201915b5050505050815250508486815181106103c7576103c7610ee7565b602002602001018190525084806103dd90610efd565b95505050505b806103ed81610efd565b915050610123565b50949350505050565b610406610a24565b610414600180546001019055565b600061041f60015490565b60408051610140810182528281526001600160a01b038916602082015290810187905233606082015260006080820181905260a082015260c0810186905260e08101859052909150610100810161047842614650610e94565b815260209081018490526000838152600380835260409182902084518155848401516001820180546001600160a01b039283166001600160a01b031991821617909155938601516002830155606086015192820180549382169390941692909217909255608084015160048301805460a08701511515600160a01b026001600160a81b0319909116929093169190911791909117905560c08301518051919261052992600585019290910190610af2565b5060e08201518051610545916006840191602090910190610af2565b506101008201516007820155610120820151805161056d916008840191602090910190610af2565b50506040516323b872dd60e01b8152336004820152306024820152604481018790526001600160a01b03881691506323b872dd90606401600060405180830381600087803b1580156105be57600080fd5b505af11580156105d2573d6000803e3d6000fd5b5050505084866001600160a01b0316827f67fa36328427cd3835f5c4f15f5a886aa9fc759a796f53128956724640cebc33336000808a8a426146506106179190610e94565b8b60405161062b9796959493929190610f18565b60405180910390a45061063e6001600055565b5050505050565b61064d610a24565b600081815260036020526040908190206002015490516323b872dd60e01b8152306004820152336024820152604481018290526001600160a01b038416906323b872dd90606401600060405180830381600087803b1580156106ae57600080fd5b505af11580156106c2573d6000803e3d6000fd5b5050506000838152600360205260409020600401805460ff60a01b1933166001600160a81b031990911617600160a01b17905550610704600280546001019055565b5061070f6001600055565b5050565b6060600061072060015490565b90506000808267ffffffffffffffff81111561073e5761073e610cf7565b60405190808252806020026020018201604052801561077757816020015b610764610a82565b81526020019060019003908161075c5790505b50905060005b83811015610a1c576000600381610795846001610e94565b815260208082019290925260409081016000908120548082526003808552918390208351610140810185528154815260018201546001600160a01b0390811696820196909652600282015494810194909452918201548416606084015260048201549384166080840152600160a01b90930460ff16151560a08301526005810180549394509092839160c084019161082c90610eac565b80601f016020809104026020016040519081016040528092919081815260200182805461085890610eac565b80156108a55780601f1061087a576101008083540402835291602001916108a5565b820191906000526020600020905b81548152906001019060200180831161088857829003601f168201915b505050505081526020016006820180546108be90610eac565b80601f01602080910402602001604051908101604052809291908181526020018280546108ea90610eac565b80156109375780601f1061090c57610100808354040283529160200191610937565b820191906000526020600020905b81548152906001019060200180831161091a57829003601f168201915b505050505081526020016007820154815260200160088201805461095a90610eac565b80601f016020809104026020016040519081016040528092919081815260200182805461098690610eac565b80156109d35780601f106109a8576101008083540402835291602001916109d3565b820191906000526020600020905b8154815290600101906020018083116109b657829003601f168201915b5050505050815250508486815181106109ee576109ee610ee7565b60200260200101819052508480610a0490610efd565b95505050508080610a1490610efd565b91505061077d565b509392505050565b60026000541415610a7b5760405162461bcd60e51b815260206004820152601f60248201527f5265656e7472616e637947756172643a207265656e7472616e742063616c6c00604482015260640160405180910390fd5b6002600055565b6040518061014001604052806000815260200160006001600160a01b031681526020016000815260200160006001600160a01b0316815260200160006001600160a01b03168152602001600015158152602001606081526020016060815260200160008152602001606081525090565b828054610afe90610eac565b90600052602060002090601f016020900481019282610b205760008555610b66565b82601f10610b3957805160ff1916838001178555610b66565b82800160010185558215610b66579182015b82811115610b66578251825591602001919060010190610b4b565b50610b72929150610b76565b5090565b5b80821115610b725760008155600101610b77565b6000815180845260005b81811015610bb157602081850181015186830182015201610b95565b81811115610bc3576000602083870101525b50601f01601f19169290920160200192915050565b60006020808301818452808551808352604092508286019150828160051b87010184880160005b83811015610ccd57603f19898403018552815180518452878101516001600160a01b039081168986015287820151888601526060808301518216908601526080808301519091169085015260a08082015115159085015260c0808201516101408287018190529190610c7383880182610b8b565b9250505060e08083015186830382880152610c8e8382610b8b565b925050506101008083015181870152506101208083015192508582038187015250610cb98183610b8b565b968901969450505090860190600101610bff565b509098975050505050505050565b80356001600160a01b0381168114610cf257600080fd5b919050565b634e487b7160e01b600052604160045260246000fd5b600082601f830112610d1e57600080fd5b813567ffffffffffffffff80821115610d3957610d39610cf7565b604051601f8301601f19908116603f01168101908282118183101715610d6157610d61610cf7565b81604052838152866020858801011115610d7a57600080fd5b836020870160208301376000602085830101528094505050505092915050565b600080600080600060a08688031215610db257600080fd5b610dbb86610cdb565b945060208601359350604086013567ffffffffffffffff80821115610ddf57600080fd5b610deb89838a01610d0d565b94506060880135915080821115610e0157600080fd5b610e0d89838a01610d0d565b93506080880135915080821115610e2357600080fd5b50610e3088828901610d0d565b9150509295509295909350565b60008060408385031215610e5057600080fd5b610e5983610cdb565b946020939093013593505050565b634e487b7160e01b600052601160045260246000fd5b600082821015610e8f57610e8f610e67565b500390565b60008219821115610ea757610ea7610e67565b500190565b600181811c90821680610ec057607f821691505b60208210811415610ee157634e487b7160e01b600052602260045260246000fd5b50919050565b634e487b7160e01b600052603260045260246000fd5b6000600019821415610f1157610f11610e67565b5060010190565b6001600160a01b03888116825287166020820152851515604082015260e060608201819052600090610f4c90830187610b8b565b8281036080840152610f5e8187610b8b565b90508460a084015282810360c0840152610f788185610b8b565b9a995050505050505050505056fea2646970667358221220667d21e702271a7f08cf1a342838fcb9aa4af24a9c230900b8c9becbec884ee464736f6c63430008090033",
  "linkReferences": {},
  "deployedLinkReferences": {}
}